:020000040800F2
:10000000C006002049010008A906000827060008CC
:10001000A50600086D040008EF13000800000000AA
:100020000000000000000000000000005D0B000860
:100030007104000800000000E5070008490C0008F2
:100040006301000863010008630100086301000800
:1000500063010008630100086301000863010008F0
:1000600063010008630100086301000863010008E0
:1000700063010008630100086301000863010008D0
:1000800063010008630100086301000863010008C0
:1000900063010008630100086301000863010008B0
:1000A00063010008630100086301000863010008A0
:1000B0006301000863010008630100086301000890
:1000C0006301000863010008630100086301000880
:1000D00063010008B5100008630100083D11000825
:1000E0006301000863010008630100086301000860
:1000F0006301000863010008630100086301000850
:10010000630100086301000863010008630100083F
:10011000630100086301000863010008630100082F
:10012000630100086301000863010008630100081F
:10013000DFF810D000F01AF8004800477D140008DE
:10014000AFF30080C00600200648804706480047FD
:10015000FEE7FEE7FEE7FEE7FEE7FEE7FEE7FEE777
:10016000FEE7FEE74D0C000831010008064C074D84
:1001700006E0E06840F0010394E807009847103477
:10018000AC42F6D3FFF7D8FF5815000878150008E1
:1001900021B1826842F00102826003E0826822F0AD
:1001A000010282607047000010B504461248844284
:1001B00008D10121401500F053FB0021601500F02B
:1001C0004FFB17E00D48844208D10121001500F0D3
:1001D00047FB0021201500F043FB0BE00848844258
:1001E00008D10121C80300F03BFB00214FF400407F
:1001F00000F036FB10BD0000002401400028014043
:10020000003C0140014600208A6802F004020AB165
:10021000012000E0002070470146C86C80B27047A2
:100220000246002013680B400BB1012000E00020C3
:100230007047014600208A6802F008020AB10120D6
:1002400000E000207047000030B502460020002387
:1002500050680F4C20400D790C6844EA0524204377
:10026000506090680B4C2040D1E902542C434D79EA
:1002700044EA450420439060D06A20F470000C7C6E
:10028000641EE4B2234340EA0350D06230BD000054
:10029000FFFEF0FFFDF7F1FFF0B504460D4600202C
:1002A0000021092D11DDE068A5F10A0606EB4607DD
:1002B000072606FA07F18843A5F10A0606EB46066B
:1002C00003FA06F10843E0600CE0206905EB4507FE
:1002D000072606FA07F1884305EB450603FA06F1FF
:1002E00008432061072A0FDA606B561E06EB86076B
:1002F0001F2606FA07F18843561E06EB860605FA06
:1003000006F10843606322E00D2A0FDA206BD61F46
:1003100006EB86071F2606FA07F18843D61F06EB71
:10032000860605FA06F10843206310E0E06AA2F1B0
:100330000D0606EB86071F2606FA07F18843A2F191
:100340000D0606EB860605FA06F10843E062F0BDED
:10035000816841F008018160704721B1826842F4F0
:10036000A002826003E0826822F4A00282607047EB
:10037000816841F0040181607047000000B587B0DA
:1003800001214FF4017000F05BFA4FF4004000F0DF
:100390002BFA2020ADF8040000208DF8070001A9F9
:1003A0001C4800F081F84020ADF8040000208DF8D2
:1003B000070001A9174800F077F81748FFF7F4FE87
:1003C000002002908DF80C008DF80D004FF4602095
:1003D00004900020059001208DF8180002A90E4815
:1003E000FFF732FF01210C48FFF7D2FE0A48FFF762
:1003F000AFFF00BF0848FFF71CFF0028FAD10648EE
:10040000FFF7B6FF00BF0448FFF7FCFE0028FAD153
:1004100007B000BD000801400024014010B50120D4
:10042000104908601049C1F8940100F015F9002145
:1004300040F2E73000F07CF900F0F8F800F0DAFF65
:100440004FF4165001F032F8FFF798FF4FF4FA70AE
:1004500000F0F5FF0020034908600349C1F894014A
:1004600010BD0000948121420000234200BFFEE73E
:10047000704700000549096821F01001034A116026
:1004800011460968014311607047000000200240D6
:1004900001460020034A106800F03800084310604D
:1004A00070470000002002402DE9F041024600257F
:1004B0000026002000230024002791F803C00CF040
:1004C0000F0591F803C00CF0100CBCF1000F03D025
:1004D00091F802C04CEA050591F800C0BCF1000F8C
:1004E00031D0146800202BE04FF0010C0CFA00F31F
:1004F000B1F800C00CEA03069E4220D183004FF001
:100500000F0C0CFA03F7BC4305FA03FC4CEA040495
:1005100091F803C0BCF1280F06D14FF0010C0CFA82
:1005200000FCC2F814C00AE091F803C0BCF1480F07
:1005300005D14FF0010C0CFA00FCC2F810C0401CB1
:100540000828D1D31460B1F800C0BCF1FF0F34DD2E
:10055000546800202EE000F1080C4FF0010808FA62
:100560000CF3B1F800C00CEA03069E4221D18300CF
:100570004FF00F0C0CFA03F7BC4305FA03FC4CEAEE
:10058000040491F803C0BCF1280F05D100F1080C58
:1005900008FA0CF8C2F8148091F803C0BCF1480FB7
:1005A00007D100F1080C4FF0010808FA0CF8C2F866
:1005B0001080401C0828CED35460BDE8F081016152
:1005C0007047000010B50446072301222146094860
:1005D000FFF762FE01210748FFF7BFFE00BF0221BF
:1005E0000448FFF71DFE0028F9D00248FFF714FE6B
:1005F00010BD0000002401402DE9F04107460C46E3
:100600000025002608E03846FFF7DCFF05440520FA
:1006100000F015FF701CC6B2A642F4DBB5FBF4F087
:1006200080B2BDE8F08100BFFEE7000008B50121FF
:10063000042000F005F91E20ADF8000010208DF810
:10064000030003208DF8020069460248FFF72CFFE3
:1006500008BD00000008014008B50121482000F055
:10066000EFF82020ADF8000010208DF803000320E3
:100670008DF8020069460948FFF716FF2021074858
:10068000FFF79DFF2020ADF8000069460448FFF702
:100690000BFF20210248FFF792FF08BD000C01402C
:1006A0000018014000BFFEE77047000070B5002150
:1006B00000230F22C47804B3154C246804F4E064CA
:1006C000C4F5E064210AC1F10403CA40447804FA85
:1006D00003F184781440214309010E4C0678A1559A
:1006E000047804F01F050124AC4005786D11AD00BD
:1006F00005F1E025C5F8004109E0047804F01F0584
:100700000124AC40044D0678761145F8264070BDB2
:100710000CED00E000E400E080E100E0024901436C
:10072000024A1160704700000000FA050CED00E07D
:1007300030B589B005460C460121022000F060F872
:100740000121082000F07CF80320ADF820001820DB
:100750008DF8230003208DF8220008A91F48FFF719
:10076000A3FE1F4800F0BAFAADF80850ADF80440F7
:100770000020ADF80600ADF80A0001A9184800F005
:1007800047FC6020ADF810000020ADF818000120F3
:10079000ADF8120004A9124800F094FB082110489B
:1007A00000F0E0FB6020ADF810000020ADF818006C
:1007B0000120ADF8120004A9094800F0DDFB082172
:1007C000074800F017FC0121054800F06FFA0121ED
:1007D000034800F077FA09B030BD0000000C01407A
:1007E000000400407047000001460020034A5068A2
:1007F00020F4404008435060704700000010024061
:1008000029B1064AD2690243044BDA6104E0034A83
:10081000D2698243014BDA61704700000010024048
:1008200029B1064A12690243044B1A6104E0034AE3
:1008300012698243014B1A617047000000100240A8
:1008400029B1064A92690243044B9A6104E0034AC3
:1008500092698243014B9A61704700000010024088
:1008600029B1064AD2680243044BDA6004E0034A25
:10087000D2688243014BDA607047000000100240EA
:1008800010B500F02FF84FF4803000F0EDF800F0D4
:1008900049F90446012C24D14FF4E011000400F082
:1008A00027F9002000F0D4F8A00200F003F900209E
:1008B00000F00CF90220FFF7EBFD1020FFF7DAFD46
:1008C000012000F00FF900BF392000F09BF800284C
:1008D000FAD0022000F01AF900BF00F0B1F80828A1
:1008E000FBD110BD0F48006840F001000D490860C1
:1008F000084640680C4908400A49486008460068B4
:100900000A490840074908600846006820F480202A
:1009100008600846406820F4FE0048604FF41F005D
:1009200088607047001002400000FFF8FFFFF6FEED
:1009300030B500210022002400232D4D6D6805F004
:100940000C0121B1042905D0082923D105E0294D46
:10095000056022E0274D05601FE0254D6D6805F418
:100960007012234D6D6805F48034022505EB924228
:100970001CB9214D554305600BE01D4D6D6805F414
:1009800000351DB11C4D5543056002E0194D55431E
:10099000056002E0174D056000BF00BF144D6D6893
:1009A00005F0F0010909154D6B5C0568DD404560F7
:1009B0000F4D6D6805F4E061090A104D6B5C4568E8
:1009C000DD4085600A4D6D6805F46051C90A0B4D24
:1009D0006B5C4568DD40C560054D6D6805F44041C0
:1009E000890B074D6B5CC568B5FBF3F5056130BD40
:1009F0000010024000127A0000093D00160000209D
:100A00002600002010B501460022002300204A11D4
:100A1000012A02D1094C236806E0022A02D1074CC0
:100A2000236A01E0054C636A01F01F02012494402F
:100A30001C400CB1012000E0002010BD001002405D
:100A40000248406800F00C007047000000100240AF
:100A500001460020034A506820F0F000084350602F
:100A600070470000001002401149096821F48031EC
:100A70000F4A11601146096821F480211160B0F518
:100A8000803F03D0B0F5802F0ED106E008490968F9
:100A900041F48031064A116007E00549096841F4D4
:100AA000A021034A116000E000BF00BF70470000B2
:100AB0000010024001460020034A506820F4E06024
:100AC00008435060704700000010024001460020BB
:100AD000034A506820F4605040EAC10050607047FB
:100AE00000100240014908667047000000004242C1
:100AF00002460020044B586820F47C1042EA0103AF
:100B00001843014B58607047001002400146002016
:100B1000034A506820F0030008435060704700000B
:100B20000010024038B5002000900024002500BFCE
:100B30003120FFF767FF05460098401C00900098A1
:100B4000B0F5A06F01D0002DF2D03120FFF75AFF91
:100B500008B1012400E00024204638BD704710B5DC
:100B600000F002F810BD00000CB5002001900090CC
:100B70003348006840F480303149086000BF304895
:100B8000006800F4003000900198401C019000982B
:100B900018B90198B0F5A06FF1D12948006800F4A8
:100BA000003010B10120009001E00020009000987A
:100BB000012843D12348006840F010002149086013
:100BC0000846006820F0030008600846006840F00E
:100BD000020008601A4840681949486008464068A1
:100BE00048600846406840F48060486008464068B5
:100BF00020F47C1048600846406840F4E8104860E3
:100C00000846006840F08070086000BF0C4800682B
:100C100000F000700028F9D00948406820F0030077
:100C2000074948600846406840F00200486000BF3D
:100C30000348406800F00C000828F9D10CBD000002
:100C400000100240002002407047000010B5134819
:100C5000006840F0010011490860084640681049EA
:100C600008400E494860084600680E4908400B4994
:100C700008600846006820F4802008600846406844
:100C800020F4FE0048604FF41F008860FFF767FF04
:100C90004FF000600449086010BD000000100240E1
:100CA0000000FFF8FFFFF6FE08ED00E021B102882A
:100CB00042F08002028004E002884FF67F731A40FF
:100CC0000280704721B1028842F00102028004E0F4
:100CD00002884FF6FE731A400280704710B5044632
:100CE0006848844208D10121C014FFF7B9FD0021F2
:100CF000E014FFF7B5FDC4E0B4F1804F08D1012145
:100D00000846FFF78DFD00210120FFF789FDB8E0BF
:100D10005D48844208D101210220FFF781FD0021B6
:100D20000220FFF77DFDACE05848844208D1012144
:100D30000420FFF775FD00210420FFF771FDA0E0FE
:100D40005348844208D101210820FFF769FD0021A2
:100D50000820FFF765FD94E04E48844208D1012148
:100D60001020FFF75DFD00211020FFF759FD88E0FE
:100D70004948844208D101212020FFF751FD00217C
:100D80002020FFF74DFD7CE04448844208D101213A
:100D90004014FFF765FD00216014FFF761FD70E06E
:100DA0003F48844209D10121C804FFF759FD0021C1
:100DB0004FF40020FFF754FD63E03A48844209D124
:100DC00001210805FFF74CFD00214FF48010FFF7CB
:100DD00047FD56E03448844209D101214805FFF718
:100DE0003FFD00214FF40010FFF73AFD49E02F4886
:100DF000844208D101214020FFF712FD002140204C
:100E0000FFF70EFD3DE02A48844208D101218020F1
:100E1000FFF706FD00218020FFF702FD31E02548A5
:100E2000844208D101218015FFF7FAFC0021A015AA
:100E3000FFF7F6FC25E02048844209D1012108048F
:100E4000FFF70EFD00214FF48030FFF709FD18E099
:100E50001A48844209D101214804FFF701FD00210D
:100E60004FF40030FFF7FCFC0BE01548844208D13A
:100E700001218804FFF7F4FC00214FF48020FFF7E4
:100E8000EFFC10BD002C01400004004000080040B1
:100E9000000C0040001000400014004000340140ED
:100EA000004C014000500140005401400018004037
:100EB000001C004000200040004001400044014070
:100EC0000048014070B5002400220023058C4FF635
:100ED000FF6635400584028C8388848B4FF68F75BE
:100EE0002C404FF6FC752C400D882C434FF6FF55D7
:100EF0002A400D894FF6FF7606EA05252A434D88DC
:100F000006EA05252A43154DA84202D0144DA842F1
:100F10001DD14FF2FF752A404D894FF6FF7606EA44
:100F200005252A434FF6FF352A408D8806EA052518
:100F30002A434EF6FF752B404DF6FF752B408D89E9
:100F400006EA05152B43CD8906EA05152B43838058
:100F50008483CD888587028470BD0000002C014009
:100F6000003401400A460021818B4FF6F773194087
:100F7000114381837047000070B5002200230024D4
:100F8000058C4EF6FF7635400584038C8488828B71
:100F900048F6FF752A404FF6FF452A400D884FF668
:100FA000FF7606EA05252A434DF6FF752B400D898D
:100FB00006EA05352B434D8806EA05352B430B4DD4
:100FC000A84202D00A4DA84208D14BF6FF752C402A
:100FD0008D894FF6FF7606EA85152C43848082833F
:100FE000CD88A0F84050038470BD0000002C014063
:100FF000003401400A460021818B4FF2FF731940F3
:101000004FF6FF7303EA0223194381837047000000
:10101000002202881D4B98420ED01D4B98420BD0E7
:10102000B0F1804F08D01B4B984205D01A4B984224
:1010300002D01A4B984204D14FF68F731A404B8856
:101040001A43174B984207D0164B984204D04FF6DC
:10105000FF431A40CB881A4302808B8883850B8814
:1010600003850A4B98420BD0094B984208D00E4B8F
:10107000984205D00D4B984202D00D4B984201D1B9
:101080000B7A03860123838270470000002C014005
:10109000003401400004004000080040000C004003
:1010A0000010004000140040004001400044014096
:1010B0000048014010B540F225511D4800F0D6F817
:1010C00010B31B4800F08EF9C4B21A48008800F42F
:1010D0000040C8B91748008800F4804060B10A2C6D
:1010E00003D000201349088020E01248008840F413
:1010F00000401049088019E00D2C06D10D480088E9
:1011000040F480400B49088010E00A480088C0F392
:101110000D0009490C5407480088401C0549088007
:1011200008460088C72801DD0020088010BD0000A7
:1011300000380140140000202C01002010B540F2BE
:101140002551124800F092F8F8B1104800F04AF921
:10115000C4B20F480088C0F30E000E490C540C486E
:101160000088401C0A49088008460088C72801DD1D
:10117000002008800648008840F4004004490880A8
:1011800040F22551014800F007F810BD004800402A
:101190002A000020F401002010B50022002340F6B0
:1011A0006A14A14200D100BF0A1201249440A3B2E4
:1011B000DC43048010BD21B1828942F40052828157
:1011C00004E082894DF6FF731A4082817047000067
:1011D00010B504462048844209D101218803FFF755
:1011E0003FFB00214FF48040FFF73AFB32E01B4801
:1011F000844209D101214804FFF712FB00214FF47A
:101200000030FFF70DFB25E01548844209D101218C
:101210008804FFF705FB00214FF48020FFF700FB57
:1012200018E01048844209D10121C804FFF7F8FAF8
:1012300000214FF40020FFF7F3FA0BE00A48844244
:1012400008D101210805FFF7EBFA00214FF48010C7
:10125000FFF7E6FA10BD00000038014000440040EE
:1012600000480040004C00400050004070B502466D
:10127000002400230025002040F66A16B14200D168
:1012800000BFC1F3421501F01F03012606FA03F364
:10129000012D02D19689334006E0022D02D1168A33
:1012A000334001E0968A33400C12012606FA04F41A
:1012B0001688344013B10CB1012000E0002070BD4D
:1012C000F0B50346002400260025002040F66A17EA
:1012D000B94200D100BF1846C1F3421401F01F0605
:1012E000012707FA06F5012C01D10C3004E0022C8D
:1012F00001D1103000E014301AB107682F430760A5
:1013000002E00768AF430760F0BD00002DE9F04739
:1013100086B005460E460024A24600BFA14600271F
:10132000B08900B100BF2F462C8A4CF6FF700440F4
:10133000F08804432C82AC894EF6F3100440B08848
:1013400031890843718908430443AC81AC8A4FF664
:10135000FF400440B0890443AC8201A8FFF7E8FADB
:101360001F48874202D1DDF810A001E0DDF80CA093
:10137000A88900F4004040B10AEBCA0000EB0A1053
:1013800031684900B0FBF1F807E00AEBCA0000EB56
:101390000A1031688900B0FBF1F86420B8FBF0F066
:1013A00004012009642101FB1089A88900F4004090
:1013B00040B1322000EBC900B0FBF1F000F00700B3
:1013C000044308E0322000EB09106421B0FBF1F087
:1013D00000F00F0004432C8106B0BDE8F087000048
:1013E0000038014001468888C0F30800704700BFFC
:1013F000FEE7000008B501211020FFF721FA0121C6
:101400000846FFF71DFA3E20ADF8000048208DF891
:10141000030069460148FFF747F808BD000C01408A
:1014200002E008C8121F08C1002AFAD170477047AD
:10143000002001E001C1121F002AFBD170470146C4
:1014400042F228324A434FF0E0235A6100229A6167
:1014500001221A6100BF4FF0E022106900F0010282
:101460001AB100F48032002AF5D04FF0E022126960
:1014700000224FF0E0231A619A617047FFF700FAEB
:101480004FF4A060FFF74AF9FEF7C8FF0BE00A210E
:101490000520FFF7B1F8044988800A210620FFF7EC
:1014A000ABF80149C880F2E70200002010B586B011
:1014B000044601218804FFF7A3F901210820FFF762
:1014C000BFF92348FFF784FE18208DF817004FF46A
:1014D0008060ADF8140003208DF8160005A91D48A2
:1014E000FEF7E2FF04208DF817004002ADF814006B
:1014F00005A91848FEF7D8FF27208DF81000012015
:101500008DF8130002208DF811008DF8120004A848
:10151000FFF7CCF8012240F225510D48FFF7D0FE2D
:1015200000940020ADF80C000420ADF80A00002063
:10153000ADF80800ADF80600ADF8040069460448AF
:10154000FFF7E4FE01210248FFF735FE06B010BDAB
:1015500000480040000C0140781500080000002001
:101560002C00000020140008A41500082C00002006
:101570009406000030140008000000000000000085
:10158000000000000000000000000000000000005B
:101590000000010203040102030406070809020413
:0415A0000608000039
:0400000508000149A5
:00000001FF
