:020000040800F2
:10000000F007002049010008D50600085703000842
:10001000D1060008010200081313000800000000C8
:10002000000000000000000000000000850C000837
:10003000050200080000000025090008710D0008F5
:100040006301000863010008630100086301000800
:1000500063010008630100086301000863010008F0
:1000600063010008630100086301000863010008E0
:1000700063010008630100086301000863010008D0
:1000800063010008630100086301000863010008C0
:1000900063010008630100086301000863010008B0
:1000A00063010008630100086301000863010008A0
:1000B0006301000863010008630100086301000890
:1000C0006301000863010008630100086301000880
:1000D00063010008DD1100086512000863010008D3
:1000E0006301000863010008630100086301000860
:1000F0006301000863010008630100086301000850
:10010000630100086301000863010008630100083F
:10011000630100086301000863010008630100082F
:10012000630100086301000863010008630100081F
:10013000DFF810D000F02CF800480047A1130008A9
:10014000AFF30080F00700200648804706480047CC
:10015000FEE7FEE7FEE7FEE7FEE7FEE7FEE7FEE777
:10016000FEE7FEE7750D00083101000840EA0103D3
:100170009B0703D009E008C9121F08C0042AFAD25D
:1001800003E011F8013B00F8013B521EF9D2704721
:10019000064C074D06E0E06840F0010394E80700D4
:1001A00098471034AC42F6D3FFF7C6FF341E000860
:1001B000541E000810B501200F4908600F49C1F80E
:1001C000940100F05FFA002140F2E73000F050FBAC
:1001D00000F042FA01F0A0F800F0E0F800F086FA32
:1001E0004FF4FA7001F0BDF800200349086003499C
:1001F000C1F8940110BD0000948121420000234207
:1002000000BFFEE7704700000549096821F01001B2
:10021000034A1160114609680143116070470000EC
:100220000020024001460020034A106800F0380018
:100230000843106070470000002002402DE9F041A3
:10024000024600250026002000230024002791F804
:1002500003C00CF00F0591F803C00CF0100CBCF1BA
:10026000000F03D091F802C04CEA050591F800C0D8
:10027000BCF1000F31D0146800202BE04FF0010CCE
:100280000CFA00F3B1F800C00CEA03069E4220D13C
:1002900083004FF00F0C0CFA03F7BC4305FA03FC84
:1002A0004CEA040491F803C0BCF1280F06D14FF0CA
:1002B000010C0CFA00FCC2F814C00AE091F803C06B
:1002C000BCF1480F05D14FF0010C0CFA00FCC2F84C
:1002D00010C0401C0828D1D31460B1F800C0BCF194
:1002E000FF0F34DD546800202EE000F1080C4FF0C1
:1002F000010808FA0CF3B1F800C00CEA03069E42AC
:1003000021D183004FF00F0C0CFA03F7BC4305FA20
:1003100003FC4CEA040491F803C0BCF1280F05D19A
:1003200000F1080C08FA0CF8C2F8148091F803C028
:10033000BCF1480F07D100F1080C4FF0010808FA92
:100340000CF8C2F81080401C0828CED35460BDE8D9
:10035000F0810161704700BFFEE770B502460024DE
:10036000002500230020958A138B1B0445EA030611
:1003700026F07F4404EA01068E4201D1012000E00C
:10038000002070BD21B1028842F00102028004E029
:1003900002884FF6FE731A40028070471FB500F0C6
:1003A00021F80020ADF804004BF6FF70ADF8060010
:1003B000C020ADF808004FF48060ADF80A000001DD
:1003C000ADF80C00054800906946054800F03CF87F
:1003D00001210348FFF7D6FF1FBD0000400D0300B9
:1003E0000054004008B501211C2000F0BDFA012195
:1003F000480500F099FAC020ADF800001C208DF8E7
:10040000030003208DF8020069460248FFF716FF3B
:1004100008BD0000000C014021B1028842F4807246
:10042000028004E002884FF6FF631A4002807047A2
:1004300021B1028842F40072028004E002884FF683
:10044000FF531A40028070472DE9F04385B00446FF
:100450000D460026B1460427DFF8CC80A6884FF66B
:10046000C0700640684600F0F7FADDF808802F48B3
:10047000B8FBF0F01FFA80F946EA0906A68020884A
:100480004FF6FE71084020800026294928688842DE
:100490000CD828684000B8FBF0F087B2042F00DACF
:1004A00004273E4309F10100208427E0E8884BF649
:1004B000FF71884206D1286800EB4000B8FBF0F0DD
:1004C00087B209E0286800EBC00101EB0010B8FB1F
:1004D000F0F087B247F48047C7F30B0008B947F044
:1004E000010747F4004006434FF4967009FB00F003
:1004F0004FF47A7190FBF1F0401C2084A683208891
:1005000040F00100208026884FF6F5300640A8888C
:100510006989084306432680A889298908432081E0
:1005200005B0BDE8F083000000127A0040420F00E1
:10053000A08601002DE9F04105460F4614461E46EF
:1005400001211D48FFF768FF00BF1C491A48FFF74B
:1005500004FF0028F9D000222946174800F070F85F
:1005600000BF17491448FFF7F8FE0028F9D03946B4
:10057000114800F06EF800BF1149891C0E48FFF7C2
:10058000ECFE0028F8D00CE021780B4800F061F870
:10059000641C00BF0A49891C0748FFF7DEFE0028DB
:1005A000F8D0301EA6F101018EB2EDD10121024832
:1005B000FFF73EFFBDE8F08100540040010003005A
:1005C0008200070070B504460E4615460121194801
:1005D000FFF722FF00BF18491648FFF7BEFE0028AC
:1005E000F9D000222146134800F02AF800BF134931
:1005F0001048FFF7B2FE0028F9D031460D4800F050
:1006000028F800BF0D49891C0A48FFF7A6FE0028FC
:10061000F8D02946074800F01CF800BF0749891C9C
:100620000448FFF79AFE0028F8D001210148FFF79F
:10063000FFFE70BD0054004001000300820007006F
:1006400012B141F0010102E04FF6FE731940018240
:10065000704701827047000008B50121042000F0B6
:1006600083F91E20ADF8000010208DF80300032050
:100670008DF8020069460248FFF7E0FD08BD000062
:100680000008014008B50121482000F06DF9202044
:10069000ADF8000010208DF8030003208DF8020053
:1006A00069460948FFF7CAFD20210748FFF751FEB8
:1006B0002020ADF8000069460448FFF7BFFD202167
:1006C0000248FFF746FE08BD000C0140001801403B
:1006D00000BFFEE77047000002490143024A116073
:1006E000704700000000FA050CED00E010B500F0C6
:1006F00093F800F06FF800F09DF802A1002000F0E0
:1007000057F810BD4F4C45445F696E6974206F6B9C
:10071000000000002DE9F04705460C4616464FF054
:10072000000AA01CC4B2D1463AE005F1B000C2B242
:1007300000217820FFF746FF2746E01704EB1070F2
:1007400000111030C2B200217820FFF73BFFE01704
:1007500004EB10700011A4EB0010C2B2002178204D
:10076000FFF730FF4FF0000811E00AEB0610A0F58C
:1007700000700E490A5C40217820FFF723FF0AF140
:10078000010000F0FF0A08F1010000F0FF08B8F1D5
:10079000080FEADB681CC5B209F1010000F0FF098F
:1007A000B9F1020FC1DBBDE8F0870000B413000807
:1007B00070B506460C46002508E014F8012BE80643
:1007C000010E3046FFF7A6FF681CC5B2207800284E
:1007D000F3D170BD70B5B0241BE022460021782013
:1007E000FFF7F0FE102200217820FFF7EBFE002239
:1007F00011467820FFF7E6FE002506E000224021A2
:100800007820FFF7DFFE681CC5B2842DF6DB601C84
:10081000C4B2B82CE1DB70BD08B505A0006800903B
:1008200003236A4600217820FFF784FE08BD0000FC
:10083000AE8D100000B587B01C2206A16846FFF7F8
:1008400095FC1C236A4600217820FFF773FE07B051
:1008500000BD0000AE0010D580A83FD300B0408D91
:1008600014A1C8DA1281FFD9F1DB302000A4A6AFB1
:1008700030B589B005460C460121022000F054F83D
:100880000121082000F070F80320ADF820001820A6
:100890008DF8230003208DF8220008A91F48FFF7D8
:1008A000CDFC1F4800F0AEFAADF80850ADF804409A
:1008B0000020ADF80600ADF80A0001A9184800F0C4
:1008C0003BFC6020ADF810000020ADF818000120BE
:1008D000ADF8120004A9124800F088FB0821104866
:1008E00000F0D4FB6020ADF810000020ADF8180037
:1008F0000120ADF8120004A9094800F0D1FB08213D
:10090000074800F00BFC0121054800F063FA0121C3
:10091000034800F06BFA09B030BD0000000C014044
:10092000000400407047000029B1064AD269024322
:10093000044BDA6104E0034AD2698243014BDA6175
:10094000704700000010024029B1064A12690243B4
:10095000044B1A6104E0034A12698243014B1A6195
:10096000704700000010024029B1064A9269024314
:10097000044B9A6104E0034A92698243014B9A61F5
:10098000704700000010024029B1064AD2680243B5
:10099000044BDA6004E0034AD2688243014BDA6018
:1009A000704700000010024010B500F02FF84FF41F
:1009B000803000F0EDF800F049F90446012C24D114
:1009C0004FF4E011000400F027F9002000F0D4F803
:1009D000A00200F003F9002000F00CF90220FFF75C
:1009E00021FC1020FFF710FC012000F00FF900BFE0
:1009F000392000F09BF80028FAD0022000F01AF904
:100A000000BF00F0B1F80828FBD110BD0F48006806
:100A100040F001000D490860084640680C49084054
:100A20000A494860084600680A49084007490860C2
:100A30000846006820F4802008600846406820F4DA
:100A4000FE0048604FF41F008860704700100240AD
:100A50000000FFF8FFFFF6FE30B500210022002461
:100A600000232D4D6D6805F00C0121B1042905D03E
:100A7000082923D105E0294D056022E0274D0560B6
:100A80001FE0254D6D6805F47012234D6D6805F467
:100A90008034022505EB92421CB9214D5543056077
:100AA0000BE01D4D6D6805F400351DB11C4D55431F
:100AB000056002E0194D5543056002E0174D0560E1
:100AC00000BF00BF144D6D6805F0F0010909154D18
:100AD0006B5C0568DD4045600F4D6D6805F4E061B5
:100AE000090A104D6B5C4568DD4085600A4D6D68F4
:100AF00005F46051C90A0B4D6B5C4568DD40C5606B
:100B0000054D6D6805F44041890B074D6B5CC56868
:100B1000B5FBF3F5056130BD0010024000127A000C
:100B200000093D001C0000202C00002010B50146EB
:100B30000022002300204A11012A02D1094C236817
:100B400006E0022A02D1074C236A01E0054C636AE1
:100B500001F01F02012494401C400CB1012000E070
:100B6000002010BD001002400248406800F00C0058
:100B7000704700000010024001460020034A506800
:100B800020F0F00008435060704700000010024061
:100B90001149096821F480310F4A11601146096832
:100BA00021F480211160B0F5803F03D0B0F5802F93
:100BB0000ED106E00849096841F48031064A116007
:100BC00007E00549096841F4A021034A116000E0EB
:100BD00000BF00BF70470000001002400146002027
:100BE000034A506820F4E0600843506070470000FA
:100BF0000010024001460020034A506820F4605073
:100C000040EAC10050607047001002400149086688
:100C1000704700000000424202460020044B586822
:100C200020F47C1042EA01031843014B58607047DE
:100C30000010024001460020034A506820F00300E3
:100C400008435060704700000010024038B5002093
:100C500000900024002500BF3120FFF767FF054604
:100C60000098401C00900098B0F5A06F01D0002DB6
:100C7000F2D03120FFF75AFF08B1012400E0002430
:100C8000204638BD704710B500F002F810BD0000D6
:100C90000CB50020019000903348006840F480308B
:100CA0003149086000BF3048006800F4003000900F
:100CB0000198401C0190009818B90198B0F5A06FF8
:100CC000F1D12948006800F4003010B101200090F3
:100CD00001E0002000900098012843D123480068DB
:100CE00040F01000214908600846006820F0030029
:100CF00008600846006840F0020008601A48406832
:100D0000194948600846406848600846406840F411
:100D1000806048600846406820F47C1048600846BF
:100D2000406840F4E81048600846006840F0807071
:100D3000086000BF0C48006800F000700028F9D07F
:100D40000948406820F003000749486008464068A9
:100D500040F00200486000BF0348406800F00C000B
:100D60000828F9D10CBD000000100240002002400C
:100D70007047000010B51348006840F001001149A9
:100D8000086008464068104908400E494860084617
:100D900000680E4908400B4908600846006820F4C6
:100DA000802008600846406820F4FE0048604FF448
:100DB0001F008860FFF767FF4FF00060044908607C
:100DC00010BD0000001002400000FFF8FFFFF6FE1B
:100DD00008ED00E021B1028842F08002028004E0C8
:100DE00002884FF67F731A400280704721B1028853
:100DF00042F00102028004E002884FF6FE731A40BE
:100E00000280704710B504466848844208D1012129
:100E1000C014FFF7B9FD0021E014FFF7B5FDC4E0F1
:100E2000B4F1804F08D101210846FFF78DFD002164
:100E30000120FFF789FDB8E05D48844208D1012117
:100E40000220FFF781FD00210220FFF77DFDACE0CD
:100E50005848844208D101210420FFF775FD002184
:100E60000420FFF771FDA0E05348844208D101211E
:100E70000820FFF769FD00210820FFF765FD94E0D9
:100E80004E48844208D101211020FFF75DFD00216A
:100E90001020FFF759FD88E04948844208D101211C
:100EA0002020FFF751FD00212020FFF74DFD7CE0C1
:100EB0004448844208D101214014FFF765FD002118
:100EC0006014FFF761FD70E03F48844209D10121C1
:100ED000C804FFF759FD00214FF40020FFF754FD2F
:100EE00063E03A48844209D101210805FFF74CFD2F
:100EF00000214FF48010FFF747FD56E0344884424C
:100F000009D101214805FFF73FFD00214FF40010F2
:100F1000FFF73AFD49E02F48844208D101214020E3
:100F2000FFF712FD00214020FFF70EFD3DE02A48AB
:100F3000844208D101218020FFF706FD0021802096
:100F4000FFF702FD31E02548844208D101218015D8
:100F5000FFF7FAFC0021A015FFF7F6FC25E020487A
:100F6000844209D101210804FFF70EFD00214FF44E
:100F70008030FFF709FD18E01A48844209D10121A9
:100F80004804FFF701FD00214FF40030FFF7FCFC9F
:100F90000BE01548844208D101218804FFF7F4FCD6
:100FA00000214FF48020FFF7EFFC10BD002C014022
:100FB0000004004000080040000C00400010004009
:100FC0000014004000340140004C0140005001403A
:100FD0000054014000180040001C00400020004068
:100FE00000400140004401400048014070B5002429
:100FF00000220023058C4FF6FF6635400584028CE5
:101000008388848B4FF68F752C404FF6FC752C40EF
:101010000D882C434FF6FF552A400D894FF6FF7679
:1010200006EA05252A434D8806EA05252A43154D7B
:10103000A84202D0144DA8421DD14FF2FF752A409C
:101040004D894FF6FF7606EA05252A434FF6FF3510
:101050002A408D8806EA05252A434EF6FF752B4067
:101060004DF6FF752B408D8906EA05152B43CD897A
:1010700006EA05152B4383808483CD888587028407
:1010800070BD0000002C0140003401400A460021E0
:10109000818B4FF6F773194011438183704700002D
:1010A00070B5002200230024058C4EF6FF763540F3
:1010B0000584038C8488828B48F6FF752A404FF69E
:1010C000FF452A400D884FF6FF7606EA05252A439C
:1010D0004DF6FF752B400D8906EA05352B434D88EB
:1010E00006EA05352B430B4DA84202D00A4DA84213
:1010F00008D14BF6FF752C408D894FF6FF7606EA36
:1011000085152C4384808283CD88A0F840500384C9
:1011100070BD0000002C0140003401400A4600214F
:10112000818B4FF2FF7319404FF6FF7303EA0223DE
:101130001943818370470000002202881D4B9842AA
:101140000ED01D4B98420BD0B0F1804F08D01B4BF6
:10115000984205D01A4B984202D01A4B984204D1BB
:101160004FF68F731A404B881A43174B984207D09B
:10117000164B984204D04FF6FF431A40CB881A43CF
:1011800002808B8883850B8803850A4B98420BD09D
:10119000094B984208D00E4B984205D00D4B98420F
:1011A00002D00D4B984201D10B7A03860123838232
:1011B00070470000002C0140003401400004004052
:1011C00000080040000C00400010004000140040E7
:1011D00000400140004401400048014010B540F289
:1011E00025511D4800F066F810B31B4800F08CF83C
:1011F000C4B21A48008800F40040C8B917480088F3
:1012000000F4804060B10A2C03D00020134908800C
:1012100020E01248008840F400401049088019E09E
:101220000D2C06D10D48008840F480400B49088001
:1012300010E00A480088C0F30D0009490C54074823
:101240000088401C0549088008460088C72801DD41
:101250000020088010BD0000003801401800002068
:101260005A02002010B540F225510E4800F022F835
:10127000B0B10C4800F048F80B490C4A1278885479
:101280000A480078401C0949087008460078FF2881
:1012900001DD0020087006480078401C04490870F1
:1012A00010BD00000044004030000020000000207D
:1012B0000100002070B50246002400230025002014
:1012C00040F66A16B14200D100BFC1F3421501F0E9
:1012D0001F03012606FA03F3012D02D1968933403C
:1012E00006E0022D02D1168A334001E0968A33408F
:1012F0000C12012606FA04F41688344013B10CB11E
:10130000012000E0002070BD01468888C0F308007D
:10131000704700BFFEE7000008B501211020FFF76D
:1013200023FB01210846FFF71FFB3E20ADF800001C
:1013300048208DF8030069460148FEF77FFF08BD8D
:10134000000C014002E008C8121F08C1002AFAD1AF
:1013500070477047002001E001C1121F002AFBD135
:101360007047014642F228324A434FF0E0235A6167
:1013700000229A6101221A6100BF4FF0E022106939
:1013800000F001021AB100F48032002AF5D04FF0CB
:10139000E022126900224FF0E0231A619A6170473F
:1013A000FFF702FB4FF4A060FFF796F9FEF702FF8C
:1013B00000BFFEE700000000000000000000000089
:1013C00000000000000038FCFC3800000000000DA8
:1013D0000D000000000E1E00001E0E0000000000A8
:1013E0000000000020F8F820F8F82000020F0F029B
:1013F0000F0F0200387C444747CC98000306041CBA
:101400001C07030030300080C06030000C06030170
:10141000000C0C0080D87CE4BCD84000070F080802
:10142000070F080000101E0E000000000000000062
:10143000000000000000F0F80C04000000000307AA
:101440000C0800000000040CF8F000000000080C7C
:101450000703000080A0E0C0C0E0A08000020301FC
:1014600001030200008080E0E080800000000003B3
:101470000300000000000000000000000000101E3B
:101480000E000000808080808080800000000000CE
:101490000000000000000000000000000000000C40
:1014A0000C00000000000080C06030000C0603014A
:1014B00000000000F8FC04C424FCF800070F090831
:1014C000080F0700001018FCFC0000000008080FBF
:1014D0000F080800080C84C4643C18000E0F0908AB
:1014E000080C0C00080C444444FCB800040C080828
:1014F000080F0700C0E0B098FCFC80000000000866
:101500000F0F08007C7C4444C4C48400040C080809
:10151000080F0700F0F84C4444C08000070F08088B
:10152000080F07000C0C0484C47C3C0000000F0F63
:1015300000000000B8FC444444FCB800070F080851
:10154000080F0700387C444444FCF80000080808F1
:101550000C0703000000003030000000000000060F
:101560000600000000000030300000000000080EFF
:10157000060000000080C060301808000000010371
:10158000060C080040404040404040000202020279
:10159000020202000008183060C0800000080C063B
:1015A00003010000181C04C4E43C18000000000DF6
:1015B0000D000000F0F808C8C8F8F000070F080B8D
:1015C0000B0B0100E0F0988C98F0E0000F0F00008A
:1015D000000F0F0004FCFC4444FCB800080F0F0887
:1015E000080F0700F0F80C04040C180003070C089F
:1015F000080C060004FCFC040CF8F000080F0F08AF
:101600000C07030004FCFC44E40C1C00080F0F084A
:10161000080C0E0004FCFC44E40C1C00080F0F082E
:1016200000000000F0F80C84848C980003070C087C
:1016300008070F00FCFC404040FCFC000F0F0000BE
:10164000000F0F00000004FCFC0400000000080F65
:101650000F08000000000004FCFC0400070F08084D
:101660000F07000004FCFCC0F03C0C00080F0F004A
:10167000010F0E0004FCFC0400000000080F0F081E
:10168000080C0E00FCFC387038FCFC000F0F00004A
:10169000000F0F00FCFC3870E0FCFC000F0F000096
:1016A000000F0F00F0F80C040CF8F00003070C0812
:1016B0000C07030004FCFC44447C3800080F0F08AE
:1016C00000000000F8FC040404FCF800070F080EFA
:1016D0003C3F270004FCFC44C4FC3800080F0F000A
:1016E000000F0F00183C6444C49C1800060E080844
:1016F000080F0700001C0CFCFC0C1C000000080F6D
:101700000F080000FCFC000000FCFC00070F0808AC
:10171000080F0700FCFC000000FCFC000103060CA5
:1017200006030100FCFC008000FCFC00030F0E031C
:101730000E0F03000C3CF0C0F03C0C000C0F03003B
:10174000030F0C00003C7CC0C07C3C000000080F74
:101750000F0800001C0C84C4643C1C000E0F090818
:10176000080C0E000000FCFC0404000000000F0F39
:10177000080800003870E0C0800000000000000190
:1017800003070E0000000404FCFC00000000080831
:101790000F0F0000080C0603060C080000000000F4
:1017A00000000000000000000000000020202020B9
:1017B000202020200000030704000000000000009B
:1017C0000000000000A0A0A0E0C00000070F080873
:1017D000070F080004FCFC2060C08000080F070809
:1017E000080F0700C0E0202020604000070F080815
:1017F000080C040080C06024FCFC0000070F0808EF
:10180000070F0800C0E0A0A0A0E0C000070F080874
:10181000080C040040F8FC440C180000080F0F08E6
:1018200000000000C0E02020C0E02000276F4848F2
:101830007F3F000004FCFC4020E0C000080F0F00C8
:10184000000F0F00000020ECEC0000000000080F6B
:101850000F0800000000000020ECEC000030704099
:10186000407F3F0004FCFC80C0602000080F0F0197
:10187000030E0C00000004FCFC0000000000080F38
:101880000F080000E0E060C060E0C0000F0F000F34
:10189000000F0F0020E0C02020E0C000000F0F006C
:1018A000000F0F00C0E0202020E0C000070F080854
:1018B000080F070020E0C02020E0C000407F7F48E4
:1018C000080F0700C0E02020C0E02000070F0848F4
:1018D0007F7F400020E0C0602060C000080F0F083C
:1018E0000000000040E0A02020604000040C090936
:1018F0000B0E04002020F8FC202000000000070F41
:10190000080C0400E0E00000E0E00000070F080819
:10191000070F080000E0E00000E0E0000003070C13
:101920000C070300E0E0000000E0E000070F0C07F8
:101930000C0F07002060C080C0602000080C070367
:10194000070C0800E0E0000000E0E000474F4848D6
:10195000683F1F00606020A0E06020000C0E0B09B3
:10196000080C0C00004040F8BC0404000000000714
:101970000F080800000000BCBC0000000000000FC1
:101980000F000000000404BCF84040000008080FED
:1019900007000000080C040C080C04000000000004
:1019A0000000000080C0603060C0800007070404B1
:1019B000040707001022640C8008494A4CF84C4A7E
:1019C000490800000404FE010404040404FF0404A4
:1019D000040604001010D0FF50902040FF00FF408C
:1019E00020300000040300FF8044221907003F411B
:1019F0004640700000F848484848FF48484848FCBE
:101A0000080000000007020202023F424242424731
:101A10004070000080808282828282E2A2928A8666
:101A200080C08000000000000040807F00000000B7
:101A300000000000000000000000000000000000A6
:101A40000000000000000000000000000000000096
:101A50000000000000000000000000000000000086
:101A60000000000000000000000000000000000076
:101A70000000000000000000000000000000000066
:101A80000000000000000000000000000000000056
:101A90000000000000000000000000000000000046
:101AA0000000000000000000000000000000000036
:101AB0000000000000000000000000000000000026
:101AC00000000000000000000000000000F8FC1C06
:101AD0003830381CFCF800F8F800F8F8000000F87E
:101AE000FC8C8C8C0080D050F0E000F0F0203000B6
:101AF00000808000808000808000000C1224120C86
:101B00000000000000000000800000000000000055
:101B1000182444884424180000000000000000003D
:101B200000000000000000000000000000000000B5
:101B300000000000000000000000000000000000A5
:101B4000000000000000000000000000000383808F
:101B500000808000030300080B0B0F0780408040CB
:101B600083030303000003030303000383808080D7
:101B700080C3C3C0C3C3C0C3C3C0C0C0C0C0808013
:101B800080C0C0402018040300000000002050A0C6
:101B900050200000000000000000000000000000D5
:101BA0000000000000000000000000000000000035
:101BB0000000000000000000000000000000000025
:101BC0000000000000000000000000000003040806
:101BD000110804030000000000000000010284C29C
:101BE000E160301078ECFCF63A1B05859713121370
:101BF000131111111111110181FFF9F9F2C28222A1
:101C000025058D8B93B3E6C68C1C18387070E0C028
:101C10008000000000000018244824180000000084
:101C200000000000000000000000000000000000B4
:101C300000000000000000000000000000000000A4
:101C4000000000000000000000000000000080E034
:101C5000E0703018181C1C1C0C1C16161606276386
:101C60006DAECE0E0E0F0F0F0E0606070706060608
:101C70000606060606060666776767E7070707068D
:101C80000606070787C76723231210000808090BF9
:101C90000F0E0E0C3C70F0C0800000000000000031
:101CA0000000000000000000000000000000000034
:101CB0000000000000000000000000000000000024
:101CC00000000000000000000000F0F8DEFFF63623
:101CD00011E0F0F8FCFEDE1E3F3F1EFEFEFCF8F2B7
:101CE000E4080107FC000000000000000000000004
:101CF0000000000000000000000000FF00000000E5
:101D0000003CFFE7311CE6FFFFFFFEFE1F3F3F1FC9
:101D1000FFFEFEFCF8F8F031FBFFFEFC380000008F
:101D200000000000000000000000000000000000B3
:101D300000000000000000000000000000000000A3
:101D4000000000000000000000000003074F4C608E
:101D5000607F7F7F7F7D4D44727240797D7F7F7F82
:101D60007F7C707073737070747474747474747432
:101D70007474747476767676767676737070727222
:101D800072737070707C7F7F7F7F7D7D6272726006
:101D9000687D7F7F7F7F7774676763000000000046
:101DA0000000000000000000000000000000000033
:101DB0000000000000000000000000000000000023
:101DC0000000000000000000000000000000000013
:101DD0000000000000000000000000000000000003
:101DE00000000000000000000000000000000000F3
:101DF00000000000000000000000000000000000E3
:101E000000000000000000000000000000000000D2
:101E100000000000000000000000000000000000C2
:101E200000000000000000000000000000000000B2
:101E300000000000541E00080000002030000000D8
:101E400044130008841E000830000020C007000072
:101E50005413000800000000000000000000000013
:101E60000000000000000000000000000000000072
:101E70000000000001020304010203040607080930
:041E8000020406084A
:0400000508000149A5
:00000001FF
