:020000040800F2
:10000000E007002049010008AD0300082B030008A9
:10001000A9030008D5010008930D000800000000A6
:1000200000000000000000000000000005070008BC
:10003000D90100080000000079040008F107000859
:100040006301000863010008630100086301000800
:1000500063010008630100086301000863010008F0
:1000600063010008630100086301000863010008E0
:1000700063010008630100086301000863010008D0
:1000800063010008630100086301000863010008C0
:1000900063010008630100086301000863010008B0
:1000A00063010008630100086301000863010008A0
:1000B0006301000863010008630100086301000890
:1000C0006301000863010008630100086301000880
:1000D000630100085D0C0008E50C000863010008DE
:1000E0006301000863010008630100086301000860
:1000F0006301000863010008630100086301000850
:10010000630100086301000863010008630100083F
:10011000630100086301000863010008630100082F
:10012000630100086301000863010008630100081F
:10013000DFF810D000F01AF8004800477D0E0008E4
:10014000AFF30080E00700200648804706480047DC
:10015000FEE7FEE7FEE7FEE7FEE7FEE7FEE7FEE777
:10016000FEE7FEE7F507000831010008064C074DE1
:1001700006E0E06840F0010394E807009847103477
:10018000AC42F6D3FFF7D8FF9C0E0008BC0E000867
:1001900010B501200D4908600D49C1F8940100F027
:1001A000DDF8002140F2E73000F00CF900F0C0F873
:1001B00000F0F2FD4FF4FA7000F041FE0020034918
:1001C00008600349C1F8940110BD000094812142E8
:1001D0000000234200BFFEE77047000005490968A0
:1001E00021F01001034A11601146096801431160B2
:1001F000704700000020024001460020034A1068BA
:1002000000F03800084310607047000000200240F2
:100210002DE9F0410246002500260020002300249D
:10022000002791F803C00CF00F0591F803C00CF003
:10023000100CBCF1000F03D091F802C04CEA050588
:1002400091F800C0BCF1000F31D0146800202BE001
:100250004FF0010C0CFA00F3B1F800C00CEA0306F1
:100260009E4220D183004FF00F0C0CFA03F7BC43E1
:1002700005FA03FC4CEA040491F803C0BCF1280F12
:1002800006D14FF0010C0CFA00FCC2F814C00AE0D1
:1002900091F803C0BCF1480F05D14FF0010C0CFAE6
:1002A00000FCC2F810C0401C0828D1D31460B1F87B
:1002B00000C0BCF1FF0F34DD546800202EE000F1D7
:1002C000080C4FF0010808FA0CF3B1F800C00CEA72
:1002D00003069E4221D183004FF00F0C0CFA03F766
:1002E000BC4305FA03FC4CEA040491F803C0BCF1DA
:1002F000280F05D100F1080C08FA0CF8C2F8148098
:1003000091F803C0BCF1480F07D100F1080C4FF081
:10031000010808FA0CF8C2F81080401C0828CED357
:100320005460BDE8F0810161704700BFFEE7000046
:1003300008B50121042000F0C1F81E20ADF800002E
:1003400010208DF8030003208DF802006946024852
:10035000FFF75EFF08BD00000008014008B501215D
:10036000482000F0ABF82020ADF8000010208DF8F8
:10037000030003208DF8020069460948FFF748FF93
:1003800020210748FFF7CFFF2020ADF80000694685
:100390000448FFF73DFF20210248FFF7C4FF08BDD6
:1003A000000C01400018014000BFFEE7704700004C
:1003B00002490143024A1160704700000000FA053B
:1003C0000CED00E030B589B005460C460121022055
:1003D00000F054F80121082000F070F80320ADF877
:1003E000200018208DF8230003208DF8220008A992
:1003F0001F48FFF70DFF1F4800F044FAADF8085002
:10040000ADF804400020ADF80600ADF80A0001A9DF
:10041000184800F0D1FB6020ADF810000020ADF8C6
:1004200018000120ADF8120004A9124800F01EFBCC
:100430000821104800F06AFB6020ADF81000002091
:10044000ADF818000120ADF8120004A9094800F029
:1004500067FB0821074800F0A1FB0121054800F0D7
:10046000F9F90121034800F001FA09B030BD00009C
:10047000000C0140000400407047000029B1064A0A
:10048000D2690243044BDA6104E0034AD269824331
:10049000014BDA61704700000010024029B1064AA2
:1004A00012690243044B1A6104E0034A1269824351
:1004B000014B1A61704700000010024029B1064A42
:1004C00092690243044B9A6104E0034A92698243B1
:1004D000014B9A61704700000010024029B1064AA2
:1004E000D2680243044BDA6004E0034AD2688243D4
:1004F000014BDA60704700000010024010B500F0B8
:100500002FF84FF4803000F083F800F0DFF8044655
:10051000012C24D14FF4E011000400F0BDF80020BC
:1005200000F06AF8A00200F099F8002000F0A2F8AC
:100530000220FFF761FE1020FFF750FE012000F0BF
:10054000A5F800BF392000F031F80028FAD00220C9
:1005500000F0B0F800BF00F047F80828FBD110BD4C
:100560000F48006840F001000D49086008464068E7
:100570000C4908400A494860084600680A49084092
:10058000074908600846006820F480200860084693
:10059000406820F4FE0048604FF41F0088607047F8
:1005A000001002400000FFF8FFFFF6FE10B5014604
:1005B0000022002300204A11012A02D1094C23689D
:1005C00006E0022A02D1074C236A01E0054C636A67
:1005D00001F01F02012494401C400CB1012000E0F6
:1005E000002010BD001002400248406800F00C00DE
:1005F000704700000010024001460020034A506886
:1006000020F0F000084350607047000000100240E6
:100610001149096821F480310F4A116011460968B7
:1006200021F480211160B0F5803F03D0B0F5802F18
:100630000ED106E00849096841F48031064A11608C
:1006400007E00549096841F4A021034A116000E070
:1006500000BF00BF704700000010024001460020AC
:10066000034A506820F4E06008435060704700007F
:100670000010024001460020034A506820F46050F8
:1006800040EAC1005060704700100240014908660E
:10069000704700000000424202460020044B5868A8
:1006A00020F47C1042EA01031843014B5860704764
:1006B0000010024001460020034A506820F0030069
:1006C00008435060704700000010024038B5002019
:1006D00000900024002500BF3120FFF767FF05468A
:1006E0000098401C00900098B0F5A06F01D0002D3C
:1006F000F2D03120FFF75AFF08B1012400E00024B6
:10070000204638BD704710B500F002F810BD00005B
:100710000CB50020019000903348006840F4803010
:100720003149086000BF3048006800F40030009094
:100730000198401C0190009818B90198B0F5A06F7D
:10074000F1D12948006800F4003010B10120009078
:1007500001E0002000900098012843D12348006860
:1007600040F01000214908600846006820F00300AE
:1007700008600846006840F0020008601A484068B7
:10078000194948600846406848600846406840F497
:10079000806048600846406820F47C104860084645
:1007A000406840F4E81048600846006840F08070F7
:1007B000086000BF0C48006800F000700028F9D005
:1007C0000948406820F0030007494860084640682F
:1007D00040F00200486000BF0348406800F00C0091
:1007E0000828F9D10CBD0000001002400020024092
:1007F0007047000010B51348006840F0010011492F
:10080000086008464068104908400E49486008469C
:1008100000680E4908400B4908600846006820F44B
:10082000802008600846406820F4FE0048604FF4CD
:100830001F008860FFF767FF4FF000600449086001
:1008400010BD0000001002400000FFF8FFFFF6FEA0
:1008500008ED00E021B1028842F08002028004E04D
:1008600002884FF67F731A400280704721B10288D8
:1008700042F00102028004E002884FF6FE731A4043
:100880000280704710B504466848844208D10121AF
:10089000C014FFF723FE0021E014FFF71FFEC4E0A1
:1008A000B4F1804F08D101210846FFF7F7FD002180
:1008B0000120FFF7F3FDB8E05D48844208D1012133
:1008C0000220FFF7EBFD00210220FFF7E7FDACE07F
:1008D0005848844208D101210420FFF7DFFD0021A0
:1008E0000420FFF7DBFDA0E05348844208D101213A
:1008F0000820FFF7D3FD00210820FFF7CFFD94E08B
:100900004E48844208D101211020FFF7C7FD002185
:100910001020FFF7C3FD88E04948844208D1012137
:100920002020FFF7BBFD00212020FFF7B7FD7CE072
:100930004448844208D101214014FFF7CFFD002133
:100940006014FFF7CBFD70E03F48844209D10121DC
:10095000C804FFF7C3FD00214FF40020FFF7BEFDE0
:1009600063E03A48844209D101210805FFF7B6FD4A
:1009700000214FF48010FFF7B1FD56E03448844267
:1009800009D101214805FFF7A9FD00214FF400100E
:10099000FFF7A4FD49E02F48844208D101214020FF
:1009A000FFF77CFD00214020FFF778FD3DE02A485D
:1009B000844208D101218020FFF770FD00218020B2
:1009C000FFF76CFD31E02548844208D101218015F4
:1009D000FFF764FD0021A015FFF760FD25E020482A
:1009E000844209D101210804FFF778FD00214FF46A
:1009F0008030FFF773FD18E01A48844209D10121C5
:100A00004804FFF76BFD00214FF40030FFF766FD4F
:100A10000BE01548844208D101218804FFF75EFDF0
:100A200000214FF48020FFF759FD10BD002C01403C
:100A30000004004000080040000C0040001000408E
:100A40000014004000340140004C014000500140BF
:100A50000054014000180040001C004000200040ED
:100A600000400140004401400048014070B50024AE
:100A700000220023058C4FF6FF6635400584028C6A
:100A80008388848B4FF68F752C404FF6FC752C4075
:100A90000D882C434FF6FF552A400D894FF6FF76FF
:100AA00006EA05252A434D8806EA05252A43154D01
:100AB000A84202D0144DA8421DD14FF2FF752A4022
:100AC0004D894FF6FF7606EA05252A434FF6FF3596
:100AD0002A408D8806EA05252A434EF6FF752B40ED
:100AE0004DF6FF752B408D8906EA05152B43CD8900
:100AF00006EA05152B4383808483CD88858702848D
:100B000070BD0000002C0140003401400A46002165
:100B1000818B4FF6F77319401143818370470000B2
:100B200070B5002200230024058C4EF6FF76354078
:100B30000584038C8488828B48F6FF752A404FF623
:100B4000FF452A400D884FF6FF7606EA05252A4321
:100B50004DF6FF752B400D8906EA05352B434D8870
:100B600006EA05352B430B4DA84202D00A4DA84298
:100B700008D14BF6FF752C408D894FF6FF7606EABB
:100B800085152C4384808283CD88A0F8405003844F
:100B900070BD0000002C0140003401400A460021D5
:100BA000818B4FF2FF7319404FF6FF7303EA022364
:100BB0001943818370470000002202881D4B984230
:100BC0000ED01D4B98420BD0B0F1804F08D01B4B7C
:100BD000984205D01A4B984202D01A4B984204D141
:100BE0004FF68F731A404B881A43174B984207D021
:100BF000164B984204D04FF6FF431A40CB881A4355
:100C000002808B8883850B8803850A4B98420BD022
:100C1000094B984208D00E4B984205D00D4B984294
:100C200002D00D4B984201D10B7A038601238382B7
:100C300070470000002C01400034014000040040D7
:100C400000080040000C004000100040001400406C
:100C500000400140004401400048014010B540F20E
:100C600025511D4800F066F810B31B4800F08CF8C1
:100C7000C4B21A48008800F40040C8B91748008878
:100C800000F4804060B10A2C03D000201349088092
:100C900020E01248008840F400401049088019E024
:100CA0000D2C06D10D48008840F480400B49088087
:100CB00010E00A480088C0F30D0009490C540748A9
:100CC0000088401C0549088008460088C72801DDC7
:100CD0000020088010BD0000003801401C000020EA
:100CE0004E02002010B540F225510E4800F022F8C7
:100CF000B0B10C4800F048F80B490C4A12788854FF
:100D00000A480078401C0949087008460078FF2806
:100D100001DD0020087006480078401C0449087076
:100D200010BD00000044004024000020040000200A
:100D30000500002070B50246002400230025002095
:100D400040F66A16B14200D100BFC1F3421501F06E
:100D50001F03012606FA03F3012D02D196893340C1
:100D600006E0022D02D1168A334001E0968A334014
:100D70000C12012606FA04F41688344013B10CB1A3
:100D8000012000E0002070BD01468888C0F3080003
:100D9000704700BFFEE7000008B501211020FFF7F3
:100DA0008DFB01210846FFF789FB3E20ADF80000CE
:100DB00048208DF8030069460148FFF729FA08BD6D
:100DC000000C01401348006842F210714843124978
:100DD000D1F8081101EB4102C2EBC11100EBC100D7
:100DE0000C490831096801EBC10202EB011100EB6B
:100DF000810008490C31096801EB810100EB4100D9
:100E000004491031096808440449088008460088EC
:100E1000704700000401224200002242200000200E
:100E200002E008C8121F08C1002AFAD170477047B3
:100E3000002001E001C1121F002AFBD170470146CA
:100E400042F228324A434FF0E0235A6100229A616D
:100E500001221A6100BF4FF0E022106900F0010288
:100E60001AB100F48032002AF5D04FF0E022126966
:100E700000224FF0E0231A619A617047FFF73EFBB2
:100E80004FF4A060FFF794FAFFF782F903E0FFF751
:100E900099FF01490880FAE700000020BC0E000815
:100EA0000000002024000000200E0008E00E0008D2
:100EB00024000020BC070000300E000800000000E5
:100EC0000000000000000000000000000000000022
:100ED0000000000000000000000000000000000012
:0400000508000149A5
:00000001FF
